:100000000C9441000C9453000C9453000C94530036
:100010000C9453000C9453000C9453000C94530014
:100020000C9453000C9453000C9453000C94530004
:100030000C9453000C946A000C9453000C945300DD
:100040000C9453000C9453000C9453000C945300E4
:100050000C9453009000AD00AD00AD00AD00AD00BC
:10006000AD00AD00AD00AD00AD00AD00AD00AD0028
:1000700084008A0096009C00AD00A800AD00AD0091
:10008000A20011241FBECFE5D8E0DEBFCDBF20E027
:10009000A0E6B0E001C01D92AB36B207E1F70E94C6
:1000A000B8000C9487010C94000090BD89B91BB86E
:1000B0008AB188618AB9579A86E880BD089582E638
:1000C0008CB98FEC97E00197F1F700C0000084E64F
:1000D0008CB908951F920F920FB60F9211248F932F
:1000E0009F93AF93BF93EF93FF93ECB1E0936A00BC
:1000F0008E2F90E0FC01E355F109E731F10568F539
:10010000E65DFF4F0C94810181E08093690080934C
:10011000670023C081E080936800809367001DC062
:1001200081E0809366008093650017C081E0809332
:1001300064008093620011C081E08093630080932B
:1001400062000BC081E0809361008093600005C075
:100150001092610081E080936000FF91EF91BF9168
:10016000AF919F918F910F900FBE0F901F90189598
:100170008FEF8ABB87BB14BAD89AC09A83E390E00A
:100180000E945500789406E619E60F2EF4E6EF2E4D
:10019000F02D0F2EF3E6FF2EF02DCFEFD1E00F2E36
:1001A000F1E6DF2EF02D8FEC97E00197F1F700C01C
:1001B0000000809160008823E1F080916100882335
:1001C00061F0C29ADA9A8FEC97E00197F1F700C0DC
:1001D00000009A9B0CC01CB90AC0C298DA988FEC38
:1001E00097E00197F1F700C000009A9B0CB91092BC
:1001F00060008FEC97E00197F1F700C0000080915C
:100200006200882311F180916400882361F0C19A13
:10021000D99A8FEC97E00197F1F700C00000999907
:10022000FCB81092640080916300882361F0C1984B
:10023000D9988FEC97E00197F1F700C00000999BE7
:10024000ECB8D0936300109262008FEC97E00197B6
:10025000F1F700C0000080916500882359F0CABB07
:10026000C7BB14BAD89AD998C09AC1980E945F00A7
:10027000109265008FEC97E00197F1F700C0000045
:1002800080916700882309F48ECF809169008823CC
:10029000B9F0D898D99AC0988FEC97E00197F1F708
:1002A00000C00000989BDCB88FEC97E00197F1F755
:1002B00000C00000999B02C0C19AFCB8109269006E
:1002C000809168008823D1F0C09AC198D89AD998B3
:1002D0008FEC97E00197F1F700C00000989B02C0F7
:1002E00082E68CB98FEC97E00197F1F700C000002F
:1002F000999902C0C198ECB81092680010926700FA
:1003000052CFEE0FFF1F0590F491E02D0994F89461
:02031000FFCF1D
:00000001FF
